:100000000C942A000C9447000C9447000C94470071
:100010000C9447000C9447000C9447000C94470044
:100020000C9447000C9447000C9447000C94470034
:100030000C9418070C9447000C9447000C9447004C
:100040000C9447000C9447000C9447000C94470014
:100050000C94470011241FBECFE5D8E0DEBFCDBF12
:1000600010E0A0E6B0E0EAE0F2E102C005900D92F7
:10007000A236B107D9F720E0A2E6B0E001C01D9298
:10008000A636B207E1F70E94C7070C9403090C9447
:100090000000CF93DF9300D000D0CDB7DEB78A83C6
:1000A0006B834C8381E089838B81883008F0A6C004
:1000B0008A81882F90E08330910509F47AC08430DA
:1000C00091050CF099C08230910509F44FC083303E
:1000D00091050CF091C0009719F0019721F18CC0A7
:1000E0008AE390E0FC018081482F8B81282F30E04B
:1000F00081E090E002C0880F991F2A95E2F7809571
:1001000048238C81882F90E02B81222F30E002C081
:10011000880F991F2A95E2F7242F282B8AE390E075
:10012000FC0120836CC087E390E0FC018081482FB4
:100130008B81282F30E081E090E002C0880F991F6A
:100140002A95E2F7809548238C81882F90E02B81B7
:10015000222F30E002C0880F991F2A95E2F7242F42
:10016000282B87E390E0FC01208349C084E390E0E2
:10017000FC018081482F8B81282F30E081E090E0C6
:1001800002C0880F991F2A95E2F7809548238C8139
:10019000882F90E02B81222F30E002C0880F991F1A
:1001A0002A95E2F7242F282B84E390E0FC0120839A
:1001B00026C081E390E0FC018081482F8B81282FAD
:1001C00030E081E090E002C0880F991F2A95E2F7A5
:1001D000809548238C81882F90E02B81222F30E05E
:1001E00002C0880F991F2A95E2F7242F282B81E35C
:1001F00090E0FC01208303C0198201C0198289812B
:100200000F900F900F900F90DF91CF910895CF93A3
:10021000DF9300D00F92CDB7DEB78A836B8381E086
:1002200089838A81882F90E08330910501F18430A1
:1002300091051CF582309105A1F083309105ECF415
:10024000009719F0019739F018C08AE390E02B81EC
:10025000FC01208314C08AE390E02B81FC01208301
:100260000EC08AE390E02B81FC01208308C08AE362
:1002700090E02B81FC01208302C01982000089815B
:100280000F900F900F90DF91CF910895CF93DF9350
:1002900000D000D0CDB7DEB78A836B834C8381E07A
:1002A00089838B81883008F0A6C08A81882F90E0EE
:1002B0008330910509F47AC0843091050CF099C01F
:1002C0008230910509F44FC0833091050CF091C044
:1002D000009719F0019721F18CC08BE390E0FC01AD
:1002E0008081482F8B81282F30E081E090E002C090
:1002F000880F991F2A95E2F7809548238C81882FD3
:1003000090E02B81222F30E002C0880F991F2A95A0
:10031000E2F7242F282B8BE390E0FC0120836CC0B4
:1003200088E390E0FC018081482F8B81282F30E00A
:1003300081E090E002C0880F991F2A95E2F780952E
:1003400048238C81882F90E02B81222F30E002C03F
:10035000880F991F2A95E2F7242F282B88E390E035
:10036000FC01208349C085E390E0FC018081482F97
:100370008B81282F30E081E090E002C0880F991F28
:100380002A95E2F7809548238C81882F90E02B8175
:10039000222F30E002C0880F991F2A95E2F7242F00
:1003A000282B85E390E0FC01208326C082E390E0C7
:1003B000FC018081482F8B81282F30E081E090E084
:1003C00002C0880F991F2A95E2F7809548238C81F7
:1003D000882F90E02B81222F30E002C0880F991FD8
:1003E0002A95E2F7242F282B82E390E0FC0120835A
:1003F00003C0198201C0198289810F900F900F905C
:100400000F90DF91CF910895CF93DF9300D00F929B
:10041000CDB7DEB78A836B8381E089838A81882F99
:1004200090E08330910501F1843091051CF5823014
:100430009105A1F083309105ECF4009719F0019734
:1004400039F018C08BE390E02B81FC01208314C0AD
:100450008BE390E02B81FC0120830EC08BE390E0C6
:100460002B81FC01208308C08BE390E02B81FC01F1
:10047000208302C01982000089810F900F900F9095
:10048000DF91CF910895CF93DF9300D000D00F92EA
:10049000CDB7DEB78A836B835D834C8381E089832C
:1004A0008B81883008F06DC08A81882F90E083307E
:1004B000910509F44FC0843091050CF060C0823082
:1004C000910599F1833091050CF059C0009719F00E
:1004D0000197B1F054C089E390E0FC018081882F3E
:1004E00090E02B81222F30E002C0959587952A95C8
:1004F000E2F7282F21708C819D81FC01208342C06E
:1005000086E390E0FC018081882F90E02B81222FF0
:1005100030E002C0959587952A95E2F7282F217043
:100520008C819D81FC0120832DC083E390E0FC0140
:100530008081882F90E02B81222F30E002C095959A
:1005400087952A95E2F7282F21708C819D81FC01E7
:10055000208318C080E390E0FC018081882F90E028
:100560002B81222F30E002C0959587952A95E2F7DE
:10057000282F21708C819D81FC01208303C019826A
:1005800001C0198289810F900F900F900F900F90EA
:10059000DF91CF910895CF93DF9300D000D0CDB7F6
:1005A000DEB78A837C836B8381E089838A81882F8D
:1005B00090E08330910549F1843091057CF58230DB
:1005C0009105D1F0833091054CF5009719F0019712
:1005D00051F024C089E390E0FC0120818B819C8153
:1005E000FC0120831DC086E390E0FC0120818B810B
:1005F0009C81FC01208314C083E390E0FC012081F6
:100600008B819C81FC0120830BC080E390E0FC0186
:1006100020818B819C81FC01208302C01982000013
:1006200089810F900F900F900F90DF91CF910895D7
:10063000CF93DF9300D000D0CDB7DEB78A836B8332
:100640004C8381E089838B81883008F0A6C08A8141
:10065000882F90E08330910509F47AC084309105A9
:100660000CF099C08230910509F44FC08330910598
:100670000CF091C0009719F0019721F18CC08BE329
:1006800090E0FC018081482F8B81282F30E081E0B1
:1006900090E002C0880F991F2A95E2F780954823C1
:1006A0008C81882F90E02B81222F30E002C0880FB0
:1006B000991F2A95E2F7242F282B8BE390E0FC0169
:1006C00020836CC088E390E0FC018081482F8B81FF
:1006D000282F30E081E090E002C0880F991F2A9512
:1006E000E2F7809548238C81882F90E02B81222F80
:1006F00030E002C0880F991F2A95E2F7242F282B9B
:1007000088E390E0FC01208349C085E390E0FC0190
:100710008081482F8B81282F30E081E090E002C05B
:10072000880F991F2A95E2F7809548238C81882F9E
:1007300090E02B81222F30E002C0880F991F2A956C
:10074000E2F7242F282B85E390E0FC01208326C0CC
:1007500082E390E0FC018081482F8B81282F30E0DC
:1007600081E090E002C0880F991F2A95E2F78095FA
:1007700048238C81882F90E02B81222F30E002C00B
:10078000880F991F2A95E2F7242F282B82E390E007
:10079000FC01208303C0198201C0198289810F9056
:1007A0000F900F900F90DF91CF910895CF93DF932B
:1007B00000D00F92CDB7DEB78A836B8381E0898347
:1007C0008A81882F90E08330910501F18430910572
:1007D0001CF582309105A1F083309105ECF400976F
:1007E00019F0019739F018C08BE390E02B81FC01E0
:1007F000208314C08BE390E02B81FC0120830EC08A
:100800008BE390E02B81FC01208308C08BE390E018
:100810002B81FC01208302C01982000089810F9086
:100820000F900F90DF91CF910895CF93DF9300D079
:10083000CDB7DEB78A8381E089838DE290E0FC0149
:1008400020818DE290E02F7DFC0120838DE290E0FD
:10085000FC0120818DE290E02860FC0120838DE284
:1008600090E0FC0120818DE290E02460FC01208377
:1008700041E065E081E00E94490040E066E081E0FF
:100880000E94490041E067E081E00E94490041E0A8
:1008900064E081E00E94490041E067E081E00E945D
:1008A00046018DE290E0FC0120818DE290E0206124
:1008B000FC0120838DE290E0FC0120818DE290E03C
:1008C0002E7FFC0120838DE290E0FC0120818DE2EF
:1008D00090E02D7FFC0120838EE290E0FC012081DE
:1008E0008EE290E02E7FFC0120838A818330B0F578
:1008F0008DE290E0FC018081882F90E09C012C7FAC
:1009000033278A81882F90E083709927282B392BF1
:100910008DE290E0FC018081982F822F292F282BD7
:100920008DE290E0FC0120838A81843048F08EE2E1
:1009300090E0FC0120818EE290E02160FC012083A8
:100940008DE290E0FC0120818DE290E02064FC01CA
:100950002083109263001092620001C01982898185
:100960000F900F90DF91CF910895CF93DF930F9267
:10097000CDB7DEB781E089838DE290E0FC01208174
:100980008DE290E02F7DFC0120838DE290E0FC0160
:1009900020818DE290E02860FC0120838DE290E0D0
:1009A000FC0120818DE290E02460FC01208340E086
:1009B00065E081E00E94490041E066E081E00E943C
:1009C000490040E067E081E00E94490040E064E0C7
:1009D00081E00E9449008DE290E0FC0120818DE2DF
:1009E00090E02F7EFC0120838DE290E0FC012081CD
:1009F0008DE290E02064FC0120831092650010924B
:100A0000640089810F90DF91CF910895CF93DF9398
:100A100000D00F92CDB7DEB789837B836A838DE2E6
:100A200090E0FC0120818DE290E02F77FC01208393
:100A30008FE290E02981FC01208340E064E081E0C6
:100A40000E9446018DE290E0FC0120818DE290E061
:100A50002064FC01208300008EE290E0FC01808194
:100A6000881F8827881F882F90E081709927019719
:100A700099F78FE290E0FC0120818A819B81FC0143
:100A800020838DE290E0FC0120818DE290E02F7BBD
:100A9000FC01208341E064E081E00E944601000007
:100AA0000F900F900F90DF91CF910895CF93DF9328
:100AB00000D00F92CDB7DEB789837B836A838DE246
:100AC00090E0FC0120818DE290E02F77FC012083F3
:100AD0008FE290E02981FC0120838DE290E0FC010F
:100AE00020818DE290E02064FC01208300008EE2F2
:100AF00090E0FC018081881F8827881F882F90E064
:100B000081709927019799F78FE290E0FC0120818D
:100B10008A819B81FC0120838DE290E0FC01208191
:100B20008DE290E02F7BFC01208300000F900F905E
:100B30000F90DF91CF910895CF93DF9300D00F9264
:100B4000CDB7DEB789837B836A83809160008A306A
:100B500071F58FE590E0FC0120818FE590E0206841
:100B6000FC0120838A819B819093630080936200C3
:100B70008DE290E0FC0120818DE290E02068FC0194
:100B800020838FE290E02981FC01208340E064E033
:100B900081E00E94460181E0809360008DE290E058
:100BA000FC0120818DE290E02064FC0120830000A4
:100BB0000F900F900F90DF91CF910895CF93DF9317
:100BC00000D00F92CDB7DEB789837B836A83809193
:100BD00060008A3041F58FE590E0FC0120818FE5CF
:100BE00090E02068FC0120838A819B8190936500BE
:100BF000809364008DE290E0FC0120818DE290E022
:100C00002068FC012083109260008FE290E029812F
:100C1000FC0120838DE290E0FC0120818DE290E0D8
:100C20002064FC01208300000F900F900F90DF9153
:100C3000CF910895CF93DF93CDB7DEB7A8970FB6C6
:100C4000F894DEBF0FBECDBF9A8B898B7C8B6B8BEC
:100C50001A821982A1C029893A8989819A81820FD1
:100C6000931FDC012C918B899C89BC01822F0E94EF
:100C70009C0589819A8101969A83898380E090E01E
:100C8000A0E8BFE38B839C83AD83BE8320E030E08C
:100C90004AE755E46B817C818D819E810E946E08BC
:100CA000698F7A8F8B8F9C8F898D9A8DAB8DBC8D40
:100CB0008F839887A987BA8720E030E040E85FE318
:100CC0006F81788589859A850E94E80788232CF4AE
:100CD00081E090E09C878B8754C020E03FEF4FE796
:100CE00057E46F81788589859A850E94690818166E
:100CF000D4F520E030E040E251E46B817C818D81CD
:100D00009E810E946E086D8F7E8F8F8F98A38D8D30
:100D10009E8DAF8DB8A18D8B9E8BAF8BB88F6D895B
:100D20007E898F89988D0E94ED0769A37AA38BA392
:100D30009CA3A9A1BAA1BC87AB8710C080E991E0B0
:100D40009E878D878D859E850197F1F79E878D877C
:100D500000008B859C8501979C878B878B859C8564
:100D6000892B61F719C06F81788589859A850E94E2
:100D7000ED076DA37EA38FA398A7EDA1FEA1FC872D
:100D8000EB878B859C85988B8F878F8598890197BA
:100D9000F1F7988B8F87000029893A8989819A8198
:100DA000820F931FDC018C91882309F054CF00003F
:100DB0000000A8960FB6F894DEBF0FBECDBFDF913E
:100DC000CF910895CF93DF9300D000D000D0CDB75E
:100DD000DEB79C838B837E836D831A82198213C056
:100DE0002B813C8189819A81820F931FFC01208194
:100DF0008D819E81BC01822F0E94DE0589819A81AE
:100E000001969A8389832B813C8189819A81820F03
:100E1000931FFC018081882319F7000000002696AB
:100E20000FB6F894DEBF0FBECDBFDF91CF9108950E
:100E30001F920F920FB60F9211242F933F934F934F
:100E40005F936F937F938F939F93AF93BF93EF9332
:100E5000FF93CF93DF93CDB7DEB7809160008130F1
:100E600049F58091620090916300892B09F442C09A
:100E700020916200309163008FE290E0FC0180815C
:100E8000F90109958DE290E0FC0120818DE290E06E
:100E90002F7BFC0120838DE290E0FC0120818DE21C
:100EA00090E02F77FC01208341E064E081E00E9424
:100EB000460120C0809160008823E1F48DE290E03B
:100EC000FC0120818DE290E02F77FC0120832091AE
:100ED0006400309165008FE290E0FC018081F901AF
:100EE00009958DE290E0FC0120818DE290E02F7B5E
:100EF000FC0120838AE0809360000000DF91CF91A5
:100F0000FF91EF91BF91AF919F918F917F916F91E1
:100F10005F914F913F912F910F900FBE0F901F90B7
:100F20001895CF93DF93CDB7DEB741E062E082E062
:100F30000E94490041E067E082E00E944900000011
:100F4000DF91CF910895CF93DF9300D0CDB7DEB777
:100F500089836A8341E06A8189810E944601000099
:100F60000F900F90DF91CF910895CF93DF9300D032
:100F7000CDB7DEB789836A8340E06A8189810E94A8
:100F8000460100000F900F90DF91CF910895CF930D
:100F9000DF9300D0CDB7DEB70E94B5040E94910761
:100FA00019821A82CE010296BC0189810E945605DF
:100FB0008A81813429F462E082E00E94A307F2CFA3
:100FC0008A81823479F762E082E00E94B507EACF35
:100FD0000E941C0808F481E008950E94480888F0E7
:100FE0009F5798F0B92F9927B751B0F0E1F0660FED
:100FF000771F881F991F1AF0BA95C9F714C0B1302E
:1010000091F00E946208B1E008950C946208672F85
:10101000782F8827B85F39F0B93FCCF3869577955C
:101020006795B395D9F73EF4909580957095619545
:101030007F4F8F4F9F4F0895990F0008550FAA0BB0
:10104000E0E8FEEF16161706E807F907C0F01216DB
:101050001306E407F50798F0621B730B840B950BDE
:1010600039F40A2661F0232B242B252B21F4089533
:101070000A2609F4A140A6958FEF811D811D0895D0
:1010800057FD9058440F551F59F05F3F71F0479539
:10109000880F97FB991F61F09F3F79F0879508951E
:1010A000121613061406551FF2CF4695F1DF08C03D
:1010B000161617061806991FF1CF8695710561055A
:1010C00008940895E894BB2766277727CB0197F902
:1010D00008950E941C0808F48FEF08950E9481086B
:1010E0000C94F2080E94E40838F00E94EB0820F00B
:1010F000952311F00C94DB080C94E10811240C9456
:1011000063080E94400870F3959FC1F3950F50E06B
:10111000551F629FF001729FBB27F00DB11D639FA9
:10112000AA27F00DB11DAA1F649F6627B00DA11D4F
:10113000661F829F2227B00DA11D621F739FB00DF5
:10114000A11D621F839FA00D611D221F749F332765
:10115000A00D611D231F849F600D211D822F762FFE
:101160006A2F11249F5750409AF0F1F088234AF0DB
:10117000EE0FFF1FBB1F661F771F881F9150504047
:10118000A9F79E3F510580F00C94DB080C9463088E
:101190005F3FE4F3983ED4F3869577956795B795CE
:1011A000F795E7959F5FC1F7FE2B880F911D9695E8
:1011B000879597F9089597F99F6780E870E060E058
:1011C00008959FEF80EC089500240A9416161706E0
:1011D00018060906089500240A9412161306140628
:1011E00005060895092E0394000C11F4882352F08B
:1011F000BB0F40F4BF2B11F460FF04C06F5F7F4F43
:0A1200008F4F9F4F0895F894FFCF21
:02120A000A00D8
:00000001FF
