:100000000C942A000C9447000C9447000C94470071
:100010000C9447000C9447000C9447000C94470044
:100020000C9447000C9447000C9447000C94470034
:100030000C945D130C9467160C9418170C944700DD
:100040000C9447000C9447000C9447000C94470014
:100050000C94470011241FBECFE5D8E0DEBFCDBF12
:1000600010E0A0E6B0E0EEE4F3E302C005900D92EC
:10007000A237B107D9F720E0A2E7B0E001C01D9296
:10008000AC37B207E1F70E9461170C94A5190C94E4
:100090000000CF93DF9300D000D0CDB7DEB78A83C6
:1000A0006B834C8381E089838B81883008F0A6C004
:1000B0008A81882F90E08330910509F47AC08430DA
:1000C00091050CF099C08230910509F44FC083303E
:1000D00091050CF091C0009719F0019721F18CC0A7
:1000E0008AE390E0FC018081482F8B81282F30E04B
:1000F00081E090E002C0880F991F2A95E2F7809571
:1001000048238C81882F90E02B81222F30E002C081
:10011000880F991F2A95E2F7242F282B8AE390E075
:10012000FC0120836CC087E390E0FC018081482FB4
:100130008B81282F30E081E090E002C0880F991F6A
:100140002A95E2F7809548238C81882F90E02B81B7
:10015000222F30E002C0880F991F2A95E2F7242F42
:10016000282B87E390E0FC01208349C084E390E0E2
:10017000FC018081482F8B81282F30E081E090E0C6
:1001800002C0880F991F2A95E2F7809548238C8139
:10019000882F90E02B81222F30E002C0880F991F1A
:1001A0002A95E2F7242F282B84E390E0FC0120839A
:1001B00026C081E390E0FC018081482F8B81282FAD
:1001C00030E081E090E002C0880F991F2A95E2F7A5
:1001D000809548238C81882F90E02B81222F30E05E
:1001E00002C0880F991F2A95E2F7242F282B81E35C
:1001F00090E0FC01208303C0198201C0198289812B
:100200000F900F900F900F90DF91CF910895CF93A3
:10021000DF9300D00F92CDB7DEB78A836B8381E086
:1002200089838A81882F90E08330910501F18430A1
:1002300091051CF582309105A1F083309105ECF415
:10024000009719F0019739F018C08AE390E02B81EC
:10025000FC01208314C08AE390E02B81FC01208301
:100260000EC08AE390E02B81FC01208308C08AE362
:1002700090E02B81FC01208302C01982000089815B
:100280000F900F900F90DF91CF910895CF93DF9350
:1002900000D000D0CDB7DEB78A836B834C8381E07A
:1002A00089838B81883008F0A6C08A81882F90E0EE
:1002B0008330910509F47AC0843091050CF099C01F
:1002C0008230910509F44FC0833091050CF091C044
:1002D000009719F0019721F18CC08BE390E0FC01AD
:1002E0008081482F8B81282F30E081E090E002C090
:1002F000880F991F2A95E2F7809548238C81882FD3
:1003000090E02B81222F30E002C0880F991F2A95A0
:10031000E2F7242F282B8BE390E0FC0120836CC0B4
:1003200088E390E0FC018081482F8B81282F30E00A
:1003300081E090E002C0880F991F2A95E2F780952E
:1003400048238C81882F90E02B81222F30E002C03F
:10035000880F991F2A95E2F7242F282B88E390E035
:10036000FC01208349C085E390E0FC018081482F97
:100370008B81282F30E081E090E002C0880F991F28
:100380002A95E2F7809548238C81882F90E02B8175
:10039000222F30E002C0880F991F2A95E2F7242F00
:1003A000282B85E390E0FC01208326C082E390E0C7
:1003B000FC018081482F8B81282F30E081E090E084
:1003C00002C0880F991F2A95E2F7809548238C81F7
:1003D000882F90E02B81222F30E002C0880F991FD8
:1003E0002A95E2F7242F282B82E390E0FC0120835A
:1003F00003C0198201C0198289810F900F900F905C
:100400000F90DF91CF910895CF93DF9300D00F929B
:10041000CDB7DEB78A836B8381E089838A81882F99
:1004200090E08330910501F1843091051CF5823014
:100430009105A1F083309105ECF4009719F0019734
:1004400039F018C08BE390E02B81FC01208314C0AD
:1004500088E390E02B81FC0120830EC085E390E0CF
:100460002B81FC01208308C082E390E02B81FC01FA
:10047000208302C01982000089810F900F900F9095
:10048000DF91CF910895CF93DF9300D000D00F92EA
:10049000CDB7DEB78A836B835D834C8381E089832C
:1004A0008B81883008F06DC08A81882F90E083307E
:1004B000910509F44FC0843091050CF060C0823082
:1004C000910599F1833091050CF059C0009719F00E
:1004D0000197B1F054C089E390E0FC018081882F3E
:1004E00090E02B81222F30E002C0959587952A95C8
:1004F000E2F7282F21708C819D81FC01208342C06E
:1005000086E390E0FC018081882F90E02B81222FF0
:1005100030E002C0959587952A95E2F7282F217043
:100520008C819D81FC0120832DC083E390E0FC0140
:100530008081882F90E02B81222F30E002C095959A
:1005400087952A95E2F7282F21708C819D81FC01E7
:10055000208318C080E390E0FC018081882F90E028
:100560002B81222F30E002C0959587952A95E2F7DE
:10057000282F21708C819D81FC01208303C019826A
:1005800001C0198289810F900F900F900F900F90EA
:10059000DF91CF910895CF93DF9300D000D0CDB7F6
:1005A000DEB78A837C836B8381E089838A81882F8D
:1005B00090E08330910549F1843091057CF58230DB
:1005C0009105D1F0833091054CF5009719F0019712
:1005D00051F024C089E390E0FC0120818B819C8153
:1005E000FC0120831DC086E390E0FC0120818B810B
:1005F0009C81FC01208314C083E390E0FC012081F6
:100600008B819C81FC0120830BC080E390E0FC0186
:1006100020818B819C81FC01208302C01982000013
:1006200089810F900F900F900F90DF91CF910895D7
:10063000CF93DF9300D000D0CDB7DEB78A836B8332
:100640004C8381E089838B81883008F0A6C08A8141
:10065000882F90E08330910509F47AC084309105A9
:100660000CF099C08230910509F44FC08330910598
:100670000CF091C0009719F0019721F18CC08BE329
:1006800090E0FC018081482F8B81282F30E081E0B1
:1006900090E002C0880F991F2A95E2F780954823C1
:1006A0008C81882F90E02B81222F30E002C0880FB0
:1006B000991F2A95E2F7242F282B8BE390E0FC0169
:1006C00020836CC088E390E0FC018081482F8B81FF
:1006D000282F30E081E090E002C0880F991F2A9512
:1006E000E2F7809548238C81882F90E02B81222F80
:1006F00030E002C0880F991F2A95E2F7242F282B9B
:1007000088E390E0FC01208349C085E390E0FC0190
:100710008081482F8B81282F30E081E090E002C05B
:10072000880F991F2A95E2F7809548238C81882F9E
:1007300090E02B81222F30E002C0880F991F2A956C
:10074000E2F7242F282B85E390E0FC01208326C0CC
:1007500082E390E0FC018081482F8B81282F30E0DC
:1007600081E090E002C0880F991F2A95E2F78095FA
:1007700048238C81882F90E02B81222F30E002C00B
:10078000880F991F2A95E2F7242F282B82E390E007
:10079000FC01208303C0198201C0198289810F9056
:1007A0000F900F900F90DF91CF910895CF93DF932B
:1007B00000D00F92CDB7DEB78A836B8381E0898347
:1007C0008A81882F90E08330910501F18430910572
:1007D0001CF582309105A1F083309105ECF400976F
:1007E00019F0019739F018C08BE390E02B81FC01E0
:1007F000208314C088E390E02B81FC0120830EC08D
:1008000085E390E02B81FC01208308C082E390E027
:100810002B81FC01208302C01982000089810F9086
:100820000F900F90DF91CF910895CF93DF93CDB7C5
:10083000DEB7C958D1090FB6F894DEBF0FBECDBFE1
:1008400089AF40E063E081E00E94460140E061E062
:1008500081E00E94460140E062E081E00E944601A2
:100860008BE390E0DC018C91982F9F7089AD807FA5
:10087000292F282B8BE390E0FC01208341E063E0EB
:1008800081E00E94460180E090E0A0E0B0E48BA708
:100890009CA7ADA7BEA720E030E04AE755E46BA5D2
:1008A0007CA58DA59EA50E9410192E966CAF7DAFDC
:1008B0008EAF9FAF2E972E968CAD9DADAEADBFADDA
:1008C0002E978FA798ABA9ABBAAB20E030E040E8F9
:1008D0005FE36FA578A989A99AA90E948A1888233D
:1008E0002CF481E090E09CAB8BAB65C020E03FEF47
:1008F0004FE757E46FA578A989A99AA90E940B1917
:1009000018160CF046C020E030E040E251E46BA540
:100910007CA58DA59EA50E94101962966CAF7DAF37
:100920008EAF9FAF629762968CAD9DADAEADBFAD01
:1009300062972A968CAF9DAFAEAFBFAF2A972A962B
:100940006CAD7DAD8EAD9FAD2A970E948F186696D7
:100950006CAF7DAF8EAF9FAF66976496AEADBFAD07
:100960006497BCABABAB10C080E991E09EAB8DABA4
:100970008DA99EA90197F1F79EAB8DAB00008BA9C5
:100980009CA901979CAB8BAB8BA99CA9892B61F788
:100990001DC06FA578A989A99AA90E948F186A9687
:1009A0006CAF7DAF8EAF9FAF6A976896EEADFFAD2F
:1009B0006897FCABEBAB8BA99CA998AF8FAB8FA9C9
:1009C00098AD0197F1F798AF8FAB000040E063E07E
:1009D00081E00E94460180E090E0A0E0B0E48D8FCD
:1009E0009E8FAF8FB8A320E030E04AE755E46D8DCD
:1009F0007E8D8F8D98A10E9410196E966CAF7DAF81
:100A00008EAF9FAF6E976E968CAD9DADAEADBFAD08
:100A10006E9789A39AA3ABA3BCA320E030E040E883
:100A20005FE369A17AA18BA19CA10E948A18882307
:100A30002CF481E090E09EA38DA365C020E03FEF01
:100A40004FE757E469A17AA18BA19CA10E940B19E1
:100A500018160CF046C020E030E040E251E46D8D05
:100A60007E8D8F8D98A10E941019A2966CAF7DAFDC
:100A70008EAF9FAFA297A2968CAD9DADAEADBFAD30
:100A8000A29726968CAF9DAFAEAFBFAF26972696A6
:100A90006CAD7DAD8EAD9FAD26970E948F18A6964A
:100AA0006CAF7DAF8EAF9FAFA697A496AEADBFAD36
:100AB000A497BEA3ADA310C080E991E098A78FA32F
:100AC0008FA198A50197F1F798A78FA300008DA19A
:100AD0009EA101979EA38DA38DA19EA1892B61F755
:100AE0001DC069A17AA18BA19CA10E948F18AA9612
:100AF0006CAF7DAF8EAF9FAFAA97A896EEADFFAD5E
:100B0000A897FEA3EDA38DA19EA19AA789A789A569
:100B10009AA50197F1F79AA789A7000040E063E042
:100B200081E00E94460140E061E081E00E944601D0
:100B300040E062E081E00E9446018BE390E0DC014E
:100B40008C91282F2F7089AD882F90E082959295F7
:100B5000907F9827807F9827282B8BE390E0FC01DB
:100B6000208341E063E081E00E94460180E090E064
:100B7000A0E0B0E48F87988BA98BBA8B20E030E09F
:100B80004AE755E46F85788989899A890E94101906
:100B9000AE966CAF7DAF8EAF9FAFAE97AE968CAD7D
:100BA0009DADAEADBFADAE978B8B9C8BAD8BBE8B31
:100BB00020E030E040E85FE36B897C898D899E8985
:100BC0000E948A1888232CF481E090E0988F8F8B04
:100BD00065C020E03FEF4FE757E46B897C898D8942
:100BE0009E890E940B1918160CF046C020E030E0D8
:100BF00040E251E46F85788989899A890E941019A9
:100C0000E2966CAF7DAF8EAF9FAFE297E2968CAD70
:100C10009DADAEADBFADE29722968CAF9DAFAEAFAE
:100C2000BFAF229722966CAD7DAD8EAD9FAD229762
:100C30000E948F18E6966CAF7DAF8EAF9FAFE697A0
:100C4000E496AEADBFADE497B88FAF8B10C080E92E
:100C500091E09A8F898F898D9A8D0197F1F79A8FFC
:100C6000898F00008F89988D0197988F8F8B8F893E
:100C7000988D892B61F71DC06B897C898D899E8930
:100C80000E948F18EA966CAF7DAF8EAF9FAFEA9748
:100C9000E896EEADFFADE897F88FEF8B8F89988DD2
:100CA0009C8F8B8F8B8D9C8D0197F1F79C8F8B8FF9
:100CB000000040E063E081E00E94460180E090E0B7
:100CC000A0E0B0E489839A83AB83BC8320E030E06A
:100CD0004AE755E469817A818B819C810E941019D1
:100CE000EE966CAF7DAF8EAF9FAFEE97EE968CAD6C
:100CF0009DADAEADBFADEE978D839E83AF83B887BC
:100D000020E030E040E85FE36D817E818F8198854F
:100D10000E948A1888232CF481E090E09A878987C2
:100D20006DC020E03FEF4FE757E46D817E818F81FA
:100D300098850E940B1918160CF04AC020E030E08C
:100D400040E251E469817A818B819C810E94101973
:100D5000C258DF4F688379838A839B83CE57D04004
:100D6000C258DF4F88819981AA81BB81CE57D0407C
:100D70008AAF9BAFACAFBDAF6AAD7BAD8CAD9DAD67
:100D80000E948F18CE57DF4F688379838A839B83B5
:100D9000C258D040CE57DF4FA881B981C258D04049
:100DA000BA87A98710C080E991E09C878B878B85E3
:100DB0009C850197F1F79C878B87000089859A8530
:100DC00001979A87898789859A85892B61F721C040
:100DD0006D817E818F8198850E948F18CA57DF4F61
:100DE000688379838A839B83C658D040CA57DF4F74
:100DF000E881F981C658D040FA87E98789859A85C4
:100E00009E878D878D859E850197F1F79E878D87BB
:100E100000000000C757DF4F0FB6F894DEBF0FBECB
:100E2000CDBFDF91CF910895CF93DF93CDB7DEB7DC
:100E3000C958D1090FB6F894DEBF0FBECDBF89AF38
:100E400040E063E081E00E94460141E061E081E032
:100E50000E94460140E062E081E00E9446018BE38F
:100E600090E0DC018C91982F9F7089AD807F292FB5
:100E7000282B8BE390E0FC01208341E063E081E0DC
:100E80000E94460180E090E0A0E0B0E48BA79CA720
:100E9000ADA7BEA720E030E04AE755E46BA57CA5EE
:100EA0008DA59EA50E9410192E966CAF7DAF8EAFBA
:100EB0009FAF2E972E968CAD9DADAEADBFAD2E974C
:100EC0008FA798ABA9ABBAAB20E030E040E85FE376
:100ED0006FA578A989A99AA90E948A1888232CF459
:100EE00081E090E09CAB8BAB65C020E03FEF4FE72B
:100EF00057E46FA578A989A99AA90E940B19181619
:100F00000CF046C020E030E040E251E46BA57CA547
:100F10008DA59EA50E94101962966CAF7DAF8EAF15
:100F20009FAF629762968CAD9DADAEADBFAD62973F
:100F30002A968CAF9DAFAEAFBFAF2A972A966CAD05
:100F40007DAD8EAD9FAD2A970E948F1866966CAFCF
:100F50007DAF8EAF9FAF66976496AEADBFAD649721
:100F6000BCABABAB10C080E991E09EAB8DAB8DA963
:100F70009EA90197F1F79EAB8DAB00008BA99CA9B0
:100F800001979CAB8BAB8BA99CA9892B61F71DC0EA
:100F90006FA578A989A99AA90E948F186A966CAF43
:100FA0007DAF8EAF9FAF6A976896EEADFFAD689745
:100FB000FCABEBAB8BA99CA998AF8FAB8FA998AD7D
:100FC0000197F1F798AF8FAB000040E063E081E05C
:100FD0000E94460180E090E0A0E0B0E48D8F9E8FFB
:100FE000AF8FB8A320E030E04AE755E46D8D7E8DE9
:100FF0008F8D98A10E9410196E966CAF7DAF8EAF49
:101000009FAF6E976E968CAD9DADAEADBFAD6E973A
:1010100089A39AA3ABA3BCA320E030E040E85FE340
:1010200069A17AA18BA19CA10E948A1888232CF423
:1010300081E090E09EA38DA365C020E03FEF4FE7E5
:1010400057E469A17AA18BA19CA10E940B191816E3
:101050000CF046C020E030E040E251E46D8D7E8D22
:101060008F8D98A10E941019A2966CAF7DAF8EAFA4
:101070009FAFA297A2968CAD9DADAEADBFADA2972E
:1010800026968CAF9DAFAEAFBFAF269726966CADC0
:101090007DAD8EAD9FAD26970E948F18A6966CAF42
:1010A0007DAF8EAF9FAFA697A496AEADBFADA49710
:1010B000BEA3ADA310C080E991E098A78FA38FA134
:1010C00098A50197F1F798A78FA300008DA19EA185
:1010D00001979EA38DA38DA19EA1892B61F71DC0B1
:1010E00069A17AA18BA19CA10E948F18AA966CAFCE
:1010F0007DAF8EAF9FAFAA97A896EEADFFADA89734
:10110000FEA3EDA38DA19EA19AA789A789A59AA563
:101110000197F1F79AA789A7000040E063E081E01A
:101120000E94460141E061E081E00E94460140E00A
:1011300062E081E00E9446018BE390E0DC018C914B
:10114000282F2F7089AD882F90E082959295907FFF
:101150009827807F9827282B8BE390E0FC01208341
:1011600041E063E081E00E94460180E090E0A0E081
:10117000B0E48F87988BA98BBA8B20E030E04AE7E8
:1011800055E46F85788989899A890E941019AE96ED
:101190006CAF7DAF8EAF9FAFAE97AE968CAD9DAD71
:1011A000AEADBFADAE978B8B9C8BAD8BBE8B20E075
:1011B00030E040E85FE36B897C898D899E890E94DD
:1011C0008A1888232CF481E090E0988F8F8B65C07B
:1011D00020E03FEF4FE757E46B897C898D899E893A
:1011E0000E940B1918160CF046C020E030E040E2D7
:1011F00051E46F85788989899A890E941019E2964D
:101200006CAF7DAF8EAF9FAFE297E2968CAD9DAD98
:10121000AEADBFADE29722968CAF9DAFAEAFBFAF84
:10122000229722966CAD7DAD8EAD9FAD22970E9428
:101230008F18E6966CAF7DAF8EAF9FAFE697E496C2
:10124000AEADBFADE497B88FAF8B10C080E991E031
:101250009A8F898F898D9A8D0197F1F79A8F898F4F
:1012600000008F89988D0197988F8F8B8F89988D2B
:10127000892B61F71DC06B897C898D899E890E94AD
:101280008F18EA966CAF7DAF8EAF9FAFEA97E89666
:10129000EEADFFADE897F88FEF8B8F89988D9C8F1F
:1012A0008B8F8B8D9C8D0197F1F79C8F8B8F00001E
:1012B00040E063E081E00E94460180E090E0A0E031
:1012C000B0E489839A83AB83BC8320E030E04AE7B3
:1012D00055E469817A818B819C810E941019EE9678
:1012E0006CAF7DAF8EAF9FAFEE97EE968CAD9DADA0
:1012F000AEADBFADEE978D839E83AF83B88720E000
:1013000030E040E85FE36D817E818F8198850E94A7
:101310008A1888232CF481E090E09A8789876DC031
:1013200020E03FEF4FE757E46D817E818F81988504
:101330000E940B1918160CF04AC020E030E040E281
:1013400051E469817A818B819C810E941019C25875
:10135000DF4F688379838A839B83CE57D040C258FE
:10136000DF4F88819981AA81BB81CE57D0408AAF57
:101370009BAFACAFBDAF6AAD7BAD8CAD9DAD0E94F8
:101380008F18CE57DF4F688379838A839B83C25837
:10139000D040CE57DF4FA881B981C258D040BA871C
:1013A000A98710C080E991E09C878B878B859C85FD
:1013B0000197F1F79C878B87000089859A850197B3
:1013C0009A87898789859A85892B61F721C06D81E4
:1013D0007E818F8198850E948F18CA57DF4F68835E
:1013E00079838A839B83C658D040CA57DF4FE881F0
:1013F000F981C658D040FA87E98789859A859E8702
:101400008D878D859E850197F1F79E878D870000DA
:101410000000C757DF4F0FB6F894DEBF0FBECDBF39
:10142000DF91CF9108950F931F93CF93DF93CDB7A3
:10143000DEB7CC5CD1090FB6F894DEBF0FBECDBFCE
:101440006FEF80E00E94070141E061E081E00E94CF
:10145000490041E062E081E00E94490041E063E030
:1014600081E00E9449009E01295B3F4F80E090E0AF
:10147000A0EFB1E4F90180839183A283B3838E014D
:10148000055B1F4FCE01895B9F4F20E030E04AE7AC
:1014900055E4DC016D917D918D919C910E94101914
:1014A000E1966CAF7DAF8EAF9FAFE197E1962CAD2B
:1014B0003DAD4EAD5FADE197D8012D933D934D937A
:1014C0005C931397CE01855B9F4F20E030E040E8AE
:1014D0005FE3FC0160817181828193810E948A189F
:1014E00088234CF4CE01815B9F4F21E030E0DC018A
:1014F0002D933C9392C0CE01855B9F4F20E03FEF40
:101500004FE757E4FC0160817181828193810E94E1
:101510000B1918160CF067C0CE01895B9F4F20E0B5
:1015200030E040E251E4DC016D917D918D919C9120
:101530000E941019E5966CAF7DAF8EAF9FAFE59717
:10154000E5962CAD3DAD4EAD5FADE597AD962CAFBC
:101550003DAF4EAF5FAFAD978E01015B1F4FAD96B4
:101560006CAD7DAD8EAD9FADAD970E948F18E996A5
:101570006CAF7DAF8EAF9FAFE997E796EEADFFAD55
:10158000E797D801ED93FC9325C0CE018F5A9F4F6A
:1015900020E931E0DC012D933C93CE018F5A9F4F1F
:1015A000FC01808191810197F1F79E012F5A3F4FF5
:1015B000D9018D939C930000CE01815B9F4F9E01CA
:1015C000215B3F4FF9012081318121503109DC013C
:1015D0002D933C93CE01815B9F4FFC0180819181D3
:1015E000892B99F635C08E01015B1F4FCE01855BBB
:1015F0009F4FDC016D917D918D919C910E948F1880
:10160000ED966CAF7DAF8EAF9FAFED97EB962EADA5
:101610003FADEB97F80131832083CE018D5A9F4F68
:101620009E01215B3F4FD9012D913C91FC013183FB
:101630002083CE018D5A9F4FDC018D919C910197A3
:10164000F1F79E012D5A3F4FF901918380830000ED
:1016500083E30E94150480E090E0A0E0B0E489AF4D
:101660009AAFABAFBCAF20E030E04AE755E469ADDC
:101670007AAD8BAD9CAD0E941019C358DF4F6883C3
:1016800079838A839B83CD57D040CE01CD96C358B2
:10169000DF4F288139814A815B81CD57D040DC0101
:1016A0002D933D934D935C93139720E030E040E8F9
:1016B0005FE3CE01CD96FC016081718182819381CF
:1016C0000E948A1888234CF4CE018F5B9F4F21E043
:1016D00030E0DC012D933C9398C020E03FEF4FE7D2
:1016E00057E4CE01CD96FC016081718182819381A6
:1016F0000E940B1918160CF06BC020E030E040E29D
:1017000051E469AD7AAD8BAD9CAD0E941019CF57F5
:10171000DF4F688379838A839B83C158D040CF573A
:10172000DF4F288139814A815B81C158D040A99619
:101730002CAF3DAF4EAF5FAFA9978E010F5B1F4F30
:10174000A9966CAD7DAD8EAD9FADA9970E948F1807
:10175000CB57DF4F688379838A839B83C558D040FA
:10176000CB57DF4FE881F981C558D040D801ED93C0
:10177000FC9325C0CE018D5B9F4F20E931E0DC0159
:101780002D933C93CE018D5B9F4FFC018081918115
:101790000197F1F79E012D5B3F4FD9018D939C93EB
:1017A0000000CE018F5B9F4F9E012F5B3F4FF901E1
:1017B0002081318121503109DC012D933C93CE01F0
:1017C0008F5B9F4FFC0180819181892B99F638C0F6
:1017D0008E010F5B1F4FCE01CD96DC016D917D9187
:1017E0008D919C910E948F18C757DF4F6883798332
:1017F0008A839B83C958D040C757DF4F28813981DE
:10180000C958D040F80131832083CE018B5B9F4FB4
:101810009E012F5B3F4FD9012D913C91FC013183FB
:101820002083CE018B5B9F4FDC018D919C910197B2
:10183000F1F79E012B5B3F4FF901918380830000FC
:1018400082E30E94150480E090E0A0E0B0E48BA762
:101850009CA7ADA7BEA720E030E04AE755E46BA502
:101860007CA58DA59EA50E941019C357DF4F6883E4
:1018700079838A839B83CD58D040C357DF4F28811B
:1018800039814A815B81CD58D0402FA738AB49AB15
:101890005AAB20E030E040E85FE36FA578A989A962
:1018A0009AA90E948A1888232CF481E090E09CABCE
:1018B0008BAB71C020E03FEF4FE757E46FA578A9ED
:1018C00089A99AA90E940B1918160CF04EC020E0A5
:1018D00030E040E251E46BA57CA58DA59EA50E9459
:1018E0001019CF56DF4F688379838A839B83C15950
:1018F000D040CF56DF4F88819981AA81BB81C159E1
:10190000D040A5968CAF9DAFAEAFBFAFA597A596C3
:101910006CAD7DAD8EAD9FADA5970E948F18CB5657
:10192000DF4F688379838A839B83C559D040CB5628
:10193000DF4FA881B981C559D040BCABABAB10C05B
:1019400080E991E09EAB8DAB8DA99EA90197F1F73F
:101950009EAB8DAB00008BA99CA901979CAB8BAB78
:101960008BA99CA9892B61F721C06FA578A989A9AA
:101970009AA90E948F18C756DF4F688379838A839C
:101980009B83C959D040C756DF4FE881F981C959B7
:10199000D040FCABEBAB8BA99CA998AF8FAB8FA9C8
:1019A00098AD0197F1F798AF8FAB00008CE20E94E1
:1019B000150480E090E0A0E0B0E48D8F9E8FAF8FA3
:1019C000B8A320E030E04AE755E46D8D7E8D8F8D21
:1019D00098A10E941019C356DF4F688379838A83C8
:1019E0009B83CD59D040C356DF4F288139814A812E
:1019F0005B81CD59D04029A33AA34BA35CA320E03F
:101A000030E040E85FE369A17AA18BA19CA10E942C
:101A10008A1888232CF481E090E09EA38DA371C0E6
:101A200020E03FEF4FE757E469A17AA18BA19CA189
:101A30000E940B1918160CF04EC020E030E040E276
:101A400051E46D8D7E8D8F8D98A10E941019CF5518
:101A5000DF4F688379838A839B83C15AD040CF55F7
:101A6000DF4F88819981AA81BB81C15AD040A1965C
:101A70008CAF9DAFAEAFBFAFA197A1966CAD7DAD62
:101A80008EAD9FADA1970E948F18CB55DF4F688315
:101A900079838A839B83C55AD040CB55DF4FA88179
:101AA000B981C55AD040BEA3ADA310C080E991E072
:101AB00098A78FA38FA198A50197F1F798A78FA357
:101AC00000008DA19EA101979EA38DA38DA19EA133
:101AD000892B61F721C069A17AA18BA19CA10E94E9
:101AE0008F18C755DF4F688379838A839B83C95AD0
:101AF000D040C755DF4FE881F981C95AD040FEA3D5
:101B0000EDA38DA19EA19AA789A789A59AA5019762
:101B1000F1F79AA789A700008CE00E94150480E0E5
:101B200090E0A0E0B0E48F87988BA98BBA8B20E07F
:101B300030E04AE755E46F85788989899A890E945F
:101B40001019C355DF4F688379838A839B83CD5AED
:101B5000D040C355DF4F288139814A815B81CD5AFE
:101B6000D0402B8B3C8B4D8B5E8B20E030E040E8EF
:101B70005FE36B897C898D899E890E948A188823FE
:101B80002CF481E090E0988F8F8B71C020E03FEFC4
:101B90004FE757E46B897C898D899E890E940B19D8
:101BA00018160CF04EC020E030E040E251E46F85A2
:101BB000788989899A890E941019CF54DF4F6883E8
:101BC00079838A839B83C15BD040CF54DF4F888168
:101BD0009981AA81BB81C15BD0406D968CAF9DAFCE
:101BE000AEAFBFAF6D976D966CAD7DAD8EAD9FAD59
:101BF0006D970E948F18CB54DF4F688379838A8357
:101C00009B83C55BD040CB54DF4FA881B981C55BB6
:101C1000D040B88FAF8B10C080E991E09A8F898F48
:101C2000898D9A8D0197F1F79A8F898F00008F899E
:101C3000988D0197988F8F8B8F89988D892B61F75D
:101C400021C06B897C898D899E890E948F18C75419
:101C5000DF4F688379838A839B83C95BD040C754F5
:101C6000DF4FE881F981C95BD040F88FEF8B8F8916
:101C7000988D9C8F8B8F8B8D9C8D0197F1F79C8F0E
:101C80008B8F000081E00E94150480E090E0A0E0CE
:101C9000B0E489839A83AB83BC8320E030E04AE7D9
:101CA00055E469817A818B819C810E941019C3540B
:101CB000DF4F688379838A839B83CD5BD040C35495
:101CC000DF4F288139814A815B81CD5BD0402D83F4
:101CD0003E834F83588720E030E040E85FE36D812A
:101CE0007E818F8198850E948A1888232CF481E058
:101CF00090E09A87898771C020E03FEF4FE757E473
:101D00006D817E818F8198850E940B1918160CF0C9
:101D10004EC020E030E040E251E469817A818B815D
:101D20009C810E941019CF53DF4F688379838A8387
:101D30009B83C15CD040CF53DF4F88819981AA81BA
:101D4000BB81C15CD04069968CAF9DAFAEAFBFAFD9
:101D5000699769966CAD7DAD8EAD9FAD69970E9418
:101D60008F18CB53DF4F688379838A839B83C55C4D
:101D7000D040CB53DF4FA881B981C55CD040BA8732
:101D8000A98710C080E991E09C878B878B859C8513
:101D90000197F1F79C878B87000089859A850197C9
:101DA0009A87898789859A85892B61F721C06D81FA
:101DB0007E818F8198850E948F18C753DF4F68837B
:101DC00079838A839B83C95CD040C753DF4FE88106
:101DD000F981C95CD040FA87E98789859A859E8711
:101DE0008D878D859E850197F1F79E878D870000F1
:101DF0000000C453DF4F0FB6F894DEBF0FBECDBF57
:101E0000DF91CF911F910F910895CF93DF930F92A0
:101E1000CDB7DEB7898389810E94140700000F9037
:101E2000DF91CF910895CF93DF9300D00F92CDB77C
:101E3000DEB79B838A8319820EC08981882F90E048
:101E40002A813B81820F931FFC0180810E9414072D
:101E500089818F5F89838981882F90E02A813B81E6
:101E6000820F931FFC018081882339F70000000056
:101E70000F900F900F90DF91CF910895CF93DF9344
:101E800000D0CDB7DEB789836A8389818E5F982FB2
:101E90009295990F990F907C8A81890F0E94150461
:101EA00000000F900F90DF91CF910895CF93DF93B3
:101EB000CDB7DEB781E00E9415040000DF91CF911D
:101EC0000895CF93DF9300D000D0CDB7DEB78A83DB
:101ED0006B834C8319826B818A810E943E0F8B81B8
:101EE000898306C080E20E94140789818F5F8983FD
:101EF00099818C818917B0F7000000000F900F9036
:101F00000F900F90DF91CF910895CF93DF930F92B1
:101F1000CDB7DEB789838981813021F48FE00E94BB
:101F2000150406C08981882319F48BE00E941504EA
:101F300000000F90DF91CF910895CF93DF93CDB73D
:101F4000DEB763970FB6F894DEBF0FBECDBF688BC8
:101F5000798B8A8B9B8B81E089831A828889998906
:101F60009C838B8312C089818F5F89838B819C8145
:101F70009C01ADECBCEC0E94031896958795969554
:101F80008795969587959C838B838B819C810A97F7
:101F900050F7888999899C838B8389818D8338C088
:101FA0004B815C819A01ADECBCEC0E9403189C0152
:101FB000369527953695279536952795C901880F2B
:101FC000991F880F991F820F931F880F991F9A01DD
:101FD000281B390B8981882F90E00197422F9E01A1
:101FE0002A5F3F4F820F931FFC0140838B819C81AE
:101FF0009C01ADECBCEC0E940318969587959695D4
:102000008795969587959C838B8389818150898359
:102010008981882329F61A8210C08A81882F90E04E
:102020009E012A5F3F4F820F931FFC018081805DDC
:102030000E9414078A818F5F8A839A818D81981705
:1020400060F30000000063960FB6F894DEBF0FBE89
:10205000CDBFDF91CF910895CF93DF9300D000D013
:102060000F92CDB7DEB79B838A836C834D8380E468
:102070000E94150419820EC08981882F90E02A8160
:102080003B81820F931FFC0180810E94140789818C
:102090008F5F89838981883078F36D818C810E947C
:1020A0003E0F00000F900F900F900F900F90DF9158
:1020B000CF910895CF93DF9300D0CDB7DEB78A8359
:1020C00081E089838DE290E0FC0120818DE290E047
:1020D0002F7DFC0120838DE290E0FC0120818DE2C8
:1020E00090E02860FC0120838DE290E0FC012081DB
:1020F0008DE290E02460FC01208341E065E081E016
:102100000E94490040E066E081E00E94490041E011
:1021100067E081E00E94490041E064E081E00E94C4
:10212000490041E067E081E00E9446018DE290E0D5
:10213000FC0120818DE290E02061FC0120838DE292
:1021400090E0FC0120818DE290E02E7FFC01208355
:102150008DE290E0FC0120818DE290E02D7FFC017A
:1021600020838EE290E0FC0120818EE290E02E7FC1
:10217000FC0120838A818330B0F58DE290E0FC0180
:102180008081882F90E09C012C7F33278A81882FC3
:1021900090E083709927282B392B8DE290E0FC0189
:1021A0008081982F822F292F282B8DE290E0FC012F
:1021B00020838A81843048F08EE290E0FC01208107
:1021C0008EE290E02160FC0120838DE290E0FC0132
:1021D00020818DE290E02064FC0120831092730046
:1021E0001092720001C0198289810F900F90DF91C7
:1021F000CF910895CF93DF930F92CDB7DEB781E0F3
:1022000089838DE290E0FC0120818DE290E02F7DBA
:10221000FC0120838DE290E0FC0120818DE290E0C2
:102220002860FC0120838DE290E0FC0120818DE29A
:1022300090E02460FC01208340E065E081E00E94A2
:10224000490041E066E081E00E94490040E067E02B
:1022500081E00E94490040E064E081E00E94490082
:102260008DE290E0FC0120818DE290E02F7EFC0168
:1022700020838DE290E0FC0120818DE290E02064DB
:10228000FC012083109275001092740089810F90D8
:10229000DF91CF910895CF93DF9300D00F92CDB708
:1022A000DEB789837B836A838DE290E0FC01208125
:1022B0008DE290E02F77FC0120838FE290E029816E
:1022C000FC01208340E064E081E00E9446018DE251
:1022D00090E0FC0120818DE290E02064FC012083ED
:1022E00000008EE290E0FC018081881F8827881F13
:1022F000882F90E081709927019799F78FE290E0FD
:10230000FC0120818A819B81FC0120838DE290E089
:10231000FC0120818DE290E02F7BFC01208341E0D5
:1023200064E081E00E94460100000F900F900F9042
:10233000DF91CF910895CF93DF9300D00F92CDB767
:10234000DEB789837B836A838DE290E0FC01208184
:102350008DE290E02F77FC0120838FE290E02981CD
:10236000FC0120838DE290E0FC0120818DE290E071
:102370002064FC01208300008EE290E0FC0180815B
:10238000881F8827881F882F90E0817099270197E0
:1023900099F78FE290E0FC0120818A819B81FC010A
:1023A00020838DE290E0FC0120818DE290E02F7B84
:1023B000FC01208300000F900F900F90DF91CF91D0
:1023C0000895CF93DF9300D00F92CDB7DEB7898306
:1023D0007B836A83809160008A3071F58FE590E09D
:1023E000FC0120818FE590E02068FC0120838A8138
:1023F0009B8190937300809372008DE290E0FC01CA
:1024000020818DE290E02068FC0120838FE290E043
:102410002981FC01208340E064E081E00E944601C4
:1024200081E0809360008DE290E0FC0120818DE2EC
:1024300090E02064FC01208300000F900F900F902B
:10244000DF91CF910895CF93DF9300D00F92CDB756
:10245000DEB789837B836A83809160008A3041F58F
:102460008FE590E0FC0120818FE590E02068FC0181
:1024700020838A819B8190937500809374008DE204
:1024800090E0FC0120818DE290E02068FC01208337
:10249000109260008FE290E02981FC0120838DE2A0
:1024A00090E0FC0120818DE290E02064FC0120831B
:1024B00000000F900F900F90DF91CF910895CF9370
:1024C000DF93CDB7DEB7A8970FB6F894DEBF0FBE87
:1024D000CDBF9A8B898B7C8B6B8B1A821982A1C0A2
:1024E00029893A8989819A81820F931FDC012C9175
:1024F0008B899C89BC01822F0E94E11189819A817C
:1025000001969A83898380E090E0A0E8BFE38B8303
:102510009C83AD83BE8320E030E04AE755E46B81C5
:102520007C818D819E810E941019698F7A8F8B8F9B
:102530009C8F898D9A8DAB8DBC8D8F839887A98751
:10254000BA8720E030E040E85FE36F8178858985D5
:102550009A850E948A1888232CF481E090E09C8759
:102560008B8754C020E03FEF4FE757E46F817885B9
:1025700089859A850E940B191816D4F520E030E061
:1025800040E251E46B817C818D819E810E94101913
:102590006D8F7E8F8F8F98A38D8D9E8DAF8DB8A1FF
:1025A0008D8B9E8BAF8BB88F6D897E898F89988D2F
:1025B0000E948F1869A37AA38BA39CA3A9A1BAA197
:1025C000BC87AB8710C080E991E09E878D878D85A1
:1025D0009E850197F1F79E878D8700008B859C85EE
:1025E00001979C878B878B859C85892B61F719C008
:1025F0006F81788589859A850E948F186DA37EA347
:102600008FA398A7EDA1FEA1FC87EB878B859C8506
:10261000988B8F878F8598890197F1F7988B8F8793
:10262000000029893A8989819A81820F931FDC01F0
:102630008C91882309F054CF00000000A8960FB6B3
:10264000F894DEBF0FBECDBFDF91CF910895CF9339
:10265000DF9300D000D000D0CDB7DEB79C838B8352
:102660007E836D831A82198213C02B813C818981FC
:102670009A81820F931FFC0120818D819E81BC0174
:10268000822F0E94231289819A8101969A838983DD
:102690002B813C8189819A81820F931FFC0180816B
:1026A000882319F70000000026960FB6F894DEBFC5
:1026B0000FBECDBFDF91CF9108951F920F920FB63D
:1026C0000F9211242F933F934F935F936F937F93B8
:1026D0008F939F93AF93BF93EF93FF93CF93DF932A
:1026E000CDB7DEB780916000813049F580917200EE
:1026F00090917300892B09F442C0209172003091AF
:1027000073008FE290E0FC018081F90109958DE270
:1027100090E0FC0120818DE290E02F7BFC01208382
:102720008DE290E0FC0120818DE290E02F77FC01AA
:10273000208341E064E081E00E94460120C0809156
:1027400060008823E1F48DE290E0FC0120818DE2BD
:1027500090E02F77FC012083209174003091750068
:102760008FE290E0FC018081F90109958DE290E013
:10277000FC0120818DE290E02F7BFC0120838AE028
:10278000809360000000DF91CF91FF91EF91BF91A6
:10279000AF919F918F917F916F915F914F913F91F9
:1027A0002F910F900FBE0F901F9018952F923F9270
:1027B0004F925F926F927F928F929F92AF92BF9251
:1027C000CF92DF92EF92FF920F931F93CF93DF93FD
:1027D00000D000D00F92CDB7DEB79D838C8381E00F
:1027E00089838C819D81FC0180819181A281B3814B
:1027F0004C015D01C12CD12C7601282D392D4A2D9B
:102800005B2D6C2D7D2D8E2D9F2D04E00E94711867
:10281000222E332E442E552E662E772E882E992E5C
:10282000A22CB32CC42CD52CE62CF72C082D192D5A
:1028300020E034E244EF50E060E070E080E090E0BF
:102840000E941418822E932EA42EB52EC62ED72E9B
:10285000E82EF92E082D192D2A2D3B2D4C2D5D2DFE
:102860006E2D7F2DC80101979B838A838A819B816E
:102870008F3F910509F030F489E290E02A81FC0154
:10288000208316C080E490E0FC01208180E490E089
:102890002F77FC0120838A819B81292F332780E4B5
:1028A00090E0FC01208389E290E02A81FC012083F2
:1028B00080E490E0FC01208180E490E02068FC014D
:1028C000208380E490E0FC01208180E490E02F7D73
:1028D000FC01208380E490E0FC01208180E490E012
:1028E0002F7EFC01208380E490E0FC01208180E4C5
:1028F00090E0277FFC01208380E490E0FC012081B0
:1029000080E490E02F7BFC012083109277008C8183
:102910009D81FC0184818823E1F480E490E0FC0146
:10292000208180E490E02D7FFC01208380E490E012
:10293000FC01208180E490E02B7FFC0120838AE26F
:1029400090E0FC0120818AE290E02B7FFC01208353
:1029500095C08C819D81FC018481813029F58AE2BA
:1029600090E0FC0120818AE290E02861FC01208354
:1029700080E490E0FC01208180E490E02268FC018A
:10298000208380E490E0FC01208180E490E02B7FB4
:10299000FC0120838AE290E0FC0120818AE290E041
:1029A0002B7FFC0120836AC08C819D81FC01848186
:1029B000823029F58AE290E0FC0120818AE290E0F1
:1029C0002861FC01208380E490E0FC01208180E408
:1029D00090E02468FC01208380E490E0FC012081E9
:1029E00080E490E02D7FFC0120838AE290E0FC01EE
:1029F00020818AE290E02B7FFC0120833FC08C8104
:102A00009D81FC018481833099F48AE290E0FC018D
:102A100020818AE290E02861FC01208380E490E03C
:102A2000FC01208180E490E02668FC01208326C020
:102A30008C819D81FC0184818730F9F48AE290E0E9
:102A4000FC0120818AE290E02460FC0120838AE27C
:102A500090E0FC0120818AE290E02861FC01208363
:102A600080E490E0FC01208180E490E02668FC0195
:102A7000208381E08093770001C019828C819D8141
:102A8000FC018581809376008C819D81FC0185818C
:102A9000813051F48FE590E0FC0120818FE590E0DA
:102AA0002068FC0120831AC08C819D81FC018581F6
:102AB000882399F48AE290E0FC0120818AE290E088
:102AC0002F77FC0120838AE290E0FC0120818AE2DA
:102AD00090E02F7DFC01208301C0198289810F9035
:102AE0000F900F900F900F90DF91CF911F910F914A
:102AF000FF90EF90DF90CF90BF90AF909F908F901E
:102B00007F906F905F904F903F902F900895CF935C
:102B1000DF9300D00F92CDB7DEB79B838A8381E02D
:102B2000898300008BE290E0FC018081829586958C
:102B30008770882F90E081709927019799F780918D
:102B400077008130E1F480E490E0FC018081382F4F
:102B50003F7B8A819B81892F992786958295880F53
:102B6000880F807C282F207480E490E0232BFC01C8
:102B700020838CE290E02A81FC01208305C08CE256
:102B800090E02A81FC01208389810F900F900F90A3
:102B9000DF91CF910895CF93DF9300D00F92CDB7FF
:102BA000DEB79B838A8381E089838AE290E0FC011F
:102BB00020818AE290E02061FC01208300008BE20A
:102BC00090E0FC018081881F8827881F882F90E073
:102BD00081709927019799F700008BE290E0FC0142
:102BE0008081829586958770882F90E081709927E3
:102BF000019799F780917700813041F58A819B8117
:102C0000FC01808191819C013D7F80E490E0FC018A
:102C10008081881F8827881F882F90E0982F882719
:102C2000990F88279270282B392B8A819B81FC0170
:102C3000318320838CE290E0FC018081282F30E0FA
:102C40008A819B81FC01318320830BC08CE290E060
:102C5000FC018081282F30E08A819B81FC01318337
:102C6000208389810F900F900F90DF91CF9108956D
:102C7000CF93DF9300D00F92CDB7DEB79B838A83CB
:102C800081E089838A819B81892BC9F08AE290E067
:102C9000FC0120818AE290E02061FC0120838AE22D
:102CA00090E0FC0120818AE290E02068FC01208312
:102CB0008A819B8190937B0080937A0001C0198266
:102CC00089810F900F900F90DF91CF9108951F92FF
:102CD0000F920FB60F9211242F933F934F935F9350
:102CE0006F937F938F939F93AF93BF93EF93FF93D4
:102CF000CF93DF9300D0CDB7DEB780917A0090916B
:102D00007B00892B09F44FC080917700813069F5F1
:102D100089819A819C013D7F80E490E0FC01808163
:102D2000881F8827881F882F90E0982F8827990F61
:102D300088279270822B932B9A83898300008BE2E1
:102D400090E0FC018081829586958770882F90E0C5
:102D500081709927019799F78CE290E0FC018081BE
:102D6000882F90E09A83898316C000008BE290E060
:102D7000FC018081829586958770882F90E0817014
:102D80009927019799F78CE290E0FC018081882FC8
:102D900090E09A83898320917A0030917B00898129
:102DA0009A81F901099500000F900F90DF91CF9162
:102DB000FF91EF91BF91AF919F918F917F916F9113
:102DC0005F914F913F912F910F900FBE0F901F90E9
:102DD0001895CF93DF9300D00F92CDB7DEB79B83CA
:102DE0008A8381E089838A819B81892BC9F08AE269
:102DF00090E0FC0120818AE290E02860FC012083C1
:102E00008A819B8190937900809378008AE290E098
:102E1000FC0120818AE290E02062FC01208301C055
:102E2000198289810F900F900F90DF91CF910895B3
:102E30001F920F920FB60F9211242F933F938F93EF
:102E40009F93EF93FF93CF93DF93CDB7DEB780913E
:102E5000780090917900FC01208131818CE290E032
:102E6000FC01208300008BE290E0FC0180818295D0
:102E7000869586958370882F90E0817099270197B9
:102E800091F78BE290E0FC0120818BE290E02064DE
:102E9000FC0120838AE290E0FC0120818AE290E03C
:102EA0002F7DFC0120830000DF91CF91FF91EF91F6
:102EB0009F918F913F912F910F900FBE0F901F9078
:102EC0001895CF93DF93CDB7DEB76A970FB6F89416
:102ED000DEBF0FBECDBF19821A821C8280E1E1E6FF
:102EE000F0E0DE01159601900D928A95E1F780E8F9
:102EF00095E2A0E0B0E08D8B9E8BAF8BB88F83E026
:102F0000898F1A8ECE0145960E94D61380E00E94CA
:102F10005A100E94130A11C08981882F90E09E01E7
:102F20002B5F3F4F820F931FFC018081882F90E021
:102F30000E94871589818F5F89838981882F90E01E
:102F40009E012B5F3F4F820F931FFC0180818823DE
:102F500019F7CE0103960E94CB158B81803318F0B0
:102F60008B818A3360F08B81813418F08B818B35B3
:102F700030F08B81813668F38B818B3750F78A81F3
:102F8000803190F46A8180E00E943E0F8B810E9424
:102F9000050F2B81CE010496BC01822F0E944B119C
:102FA0008A818F5F8A83D5CF8A818031B8F08A8108
:102FB0008032A0F48A818051682F81E00E943E0F08
:102FC0008B810E94050F2B81CE010496BC01822FBC
:102FD0000E944B118A818F5F8A8314C00E94560F12
:102FE0001A826A8180E00E943E0F8B810E94050F49
:102FF0002B81CE010496BC01822F0E944B118A8145
:103000008F5F8A83A6CFA29FB001B39FC001A39F09
:10301000700D811D1124911DB29F700D811D112411
:10302000911D0895689401C0E8948F929F92CF9368
:10303000DF930E942018DF91CF919F908F90089589
:1030400088249924F401E401B0E49F93AA279A15F7
:103050008B049C04ED05FE05CF05D007A10798F46D
:10306000AD2FDC2FCF2FFE2FE92D982C892E982FF6
:10307000872F762F652F542F432F322F2227B850BA
:1030800031F7BF9127C01B2EBF91BB27220F331FE3
:10309000441F551F661F771F881F991F881C991C86
:1030A000EE1FFF1FCC1FDD1FAA1FBB1F8A149B042E
:1030B000EC05FD05CE05DF05A007B10748F08A182D
:1030C0009B08EC09FD09CE09DF09A00BB10B2160BB
:1030D0001A94E1F62EF49401AF01BE01CD01000C6B
:1030E0000895002E083090F0982F872F762F652FA7
:1030F000542F432F322F22270850F4CF220F331F93
:10310000441F551F661F771F881F991F0A95B2F726
:10311000002D08950E94BE1808F481E008950E94D1
:10312000EA1888F09F5798F0B92F9927B751B0F057
:10313000E1F0660F771F881F991F1AF0BA95C9F73B
:1031400014C0B13091F00E940419B1E008950C94BC
:103150000419672F782F8827B85F39F0B93FCCF36F
:10316000869577956795B395D9F73EF490958095B8
:10317000709561957F4F8F4F9F4F0895990F00086D
:10318000550FAA0BE0E8FEEF16161706E807F90739
:10319000C0F012161306E407F50798F0621B730BD4
:1031A000840B950B39F40A2661F0232B242B252B55
:1031B00021F408950A2609F4A140A6958FEF811DF8
:1031C000811D089557FD9058440F551F59F05F3FDA
:1031D00071F04795880F97FB991F61F09F3F79F039
:1031E00087950895121613061406551FF2CF4695BB
:1031F000F1DF08C0161617061806991FF1CF86953D
:103200007105610508940895E894BB276627772720
:10321000CB0197F908950E94BE1808F48FEF089526
:103220000E9423190C9494190E94861938F00E9468
:103230008D1920F0952311F00C947D190C948319AD
:1032400011240C9405190E94E21870F3959FC1F3A4
:10325000950F50E0551F629FF001729FBB27F00D44
:10326000B11D639FAA27F00DB11DAA1F649F662799
:10327000B00DA11D661F829F2227B00DA11D621FE8
:10328000739FB00DA11D621F839FA00D611D221FA2
:10329000749F3327A00D611D231F849F600D211D86
:1032A000822F762F6A2F11249F5750409AF0F1F009
:1032B00088234AF0EE0FFF1FBB1F661F771F881F72
:1032C00091505040A9F79E3F510580F00C947D1914
:1032D0000C9405195F3FE4F3983ED4F386957795F7
:1032E0006795B795F795E7959F5FC1F7FE2B880F18
:1032F000911D9695879597F9089597F99F6780E8AE
:1033000070E060E008959FEF80EC089500240A9437
:103310001616170618060906089500240A941216B0
:103320001306140605060895092E0394000C11F4E3
:10333000882352F0BB0F40F4BF2B11F460FF04C090
:0E3340006F5F7F4F8F4F9F4F0895F894FFCF20
:10334E000A454E544552204F5045524154494F4E16
:02335E0000006D
:00000001FF
